{
  "_format": "hh-sol-artifact-1",
  "contractName": "DigitalArtMarketplace",
  "sourceName": "contracts/DigitalArtMarketplace.sol",
  "abi": [
    {
      "anonymous": false,
      "inputs": [
        {
          "indexed": false,
          "internalType": "uint256",
          "name": "id",
          "type": "uint256"
        },
        {
          "indexed": false,
          "internalType": "address",
          "name": "artist",
          "type": "address"
        },
        {
          "indexed": false,
          "internalType": "string",
          "name": "title",
          "type": "string"
        },
        {
          "indexed": false,
          "internalType": "uint256",
          "name": "price",
          "type": "uint256"
        }
      ],
      "name": "ArtworkListed",
      "type": "event"
    },
    {
      "anonymous": false,
      "inputs": [
        {
          "indexed": false,
          "internalType": "uint256",
          "name": "id",
          "type": "uint256"
        },
        {
          "indexed": false,
          "internalType": "address",
          "name": "seller",
          "type": "address"
        },
        {
          "indexed": false,
          "internalType": "address",
          "name": "buyer",
          "type": "address"
        },
        {
          "indexed": false,
          "internalType": "uint256",
          "name": "price",
          "type": "uint256"
        }
      ],
      "name": "ArtworkSold",
      "type": "event"
    },
    {
      "inputs": [],
      "name": "artworkCount",
      "outputs": [
        {
          "internalType": "uint256",
          "name": "",
          "type": "uint256"
        }
      ],
      "stateMutability": "view",
      "type": "function"
    },
    {
      "inputs": [
        {
          "internalType": "uint256",
          "name": "",
          "type": "uint256"
        }
      ],
      "name": "artworks",
      "outputs": [
        {
          "internalType": "uint256",
          "name": "id",
          "type": "uint256"
        },
        {
          "internalType": "address payable",
          "name": "artist",
          "type": "address"
        },
        {
          "internalType": "string",
          "name": "title",
          "type": "string"
        },
        {
          "internalType": "uint256",
          "name": "price",
          "type": "uint256"
        },
        {
          "internalType": "bool",
          "name": "isForSale",
          "type": "bool"
        }
      ],
      "stateMutability": "view",
      "type": "function"
    },
    {
      "inputs": [
        {
          "internalType": "uint256",
          "name": "_id",
          "type": "uint256"
        }
      ],
      "name": "buyArtwork",
      "outputs": [],
      "stateMutability": "payable",
      "type": "function"
    },
    {
      "inputs": [
        {
          "internalType": "string",
          "name": "_title",
          "type": "string"
        },
        {
          "internalType": "uint256",
          "name": "_price",
          "type": "uint256"
        }
      ],
      "name": "listArtwork",
      "outputs": [],
      "stateMutability": "nonpayable",
      "type": "function"
    },
    {
      "inputs": [
        {
          "internalType": "uint256",
          "name": "_id",
          "type": "uint256"
        },
        {
          "internalType": "uint256",
          "name": "_newPrice",
          "type": "uint256"
        }
      ],
      "name": "updateArtworkPrice",
      "outputs": [],
      "stateMutability": "nonpayable",
      "type": "function"
    }
  ],
  "bytecode": "0x608060405234801561001057600080fd5b50611131806100206000396000f3fe60806040526004361061004a5760003560e01c80634b6026731461004f5780635001257e14610090578063a0876445146100b9578063be4cf5aa146100e4578063e44c3c4b1461010d575b600080fd5b34801561005b57600080fd5b5061007660048036038101906100719190610727565b610129565b60405161008795949392919061084f565b60405180910390f35b34801561009c57600080fd5b506100b760048036038101906100b291906108a9565b610214565b005b3480156100c557600080fd5b506100ce61032a565b6040516100db91906108e9565b60405180910390f35b3480156100f057600080fd5b5061010b60048036038101906101069190610a39565b610330565b005b61012760048036038101906101229190610727565b6104b8565b005b60006020528060005260406000206000915090508060000154908060010160009054906101000a900473ffffffffffffffffffffffffffffffffffffffff169080600201805461017890610ac4565b80601f01602080910402602001604051908101604052809291908181526020018280546101a490610ac4565b80156101f15780601f106101c6576101008083540402835291602001916101f1565b820191906000526020600020905b8154815290600101906020018083116101d457829003601f168201915b5050505050908060030154908060040160009054906101000a900460ff16905085565b600080600084815260200190815260200160002090508060010160009054906101000a900473ffffffffffffffffffffffffffffffffffffffff1673ffffffffffffffffffffffffffffffffffffffff163373ffffffffffffffffffffffffffffffffffffffff16146102bc576040517f08c379a00000000000000000000000000000000000000000000000000000000081526004016102b390610b67565b60405180910390fd5b600082116102ff576040517f08c379a00000000000000000000000000000000000000000000000000000000081526004016102f690610bd3565b60405180910390fd5b81816003018190555060018160040160006101000a81548160ff021916908315150217905550505050565b60015481565b60008111610373576040517f08c379a000000000000000000000000000000000000000000000000000000000815260040161036a90610bd3565b60405180910390fd5b6001600081548092919061038690610c22565b91905055506040518060a0016040528060015481526020013373ffffffffffffffffffffffffffffffffffffffff1681526020018381526020018281526020016001151581525060008060015481526020019081526020016000206000820151816000015560208201518160010160006101000a81548173ffffffffffffffffffffffffffffffffffffffff021916908373ffffffffffffffffffffffffffffffffffffffff16021790555060408201518160020190816104479190610e16565b506060820151816003015560808201518160040160006101000a81548160ff0219169083151502179055509050507f8993b5b3f60dbe3cadaf1217b19c703247747c7f264e8679f63336ebf9fb6a156001543384846040516104ac9493929190610f09565b60405180910390a15050565b600080600083815260200190815260200160002090508060040160009054906101000a900460ff1661051f576040517f08c379a000000000000000000000000000000000000000000000000000000000815260040161051690610fa1565b60405180910390fd5b8060030154341015610566576040517f08c379a000000000000000000000000000000000000000000000000000000000815260040161055d9061100d565b60405180910390fd5b60008160010160009054906101000a900473ffffffffffffffffffffffffffffffffffffffff169050600082600301549050338360010160006101000a81548173ffffffffffffffffffffffffffffffffffffffff021916908373ffffffffffffffffffffffffffffffffffffffff16021790555060008360040160006101000a81548160ff0219169083151502179055508173ffffffffffffffffffffffffffffffffffffffff166108fc829081150290604051600060405180830381858888f1935050505015801561063e573d6000803e3d6000fd5b507f0634626e616f8a7485091cf43f024011ba5d9b8fcbe8eac44a3efe20f7dfb604848333846040516106749493929190611082565b60405180910390a1803411156106d7573373ffffffffffffffffffffffffffffffffffffffff166108fc82346106aa91906110c7565b9081150290604051600060405180830381858888f193505050501580156106d5573d6000803e3d6000fd5b505b50505050565b6000604051905090565b600080fd5b600080fd5b6000819050919050565b610704816106f1565b811461070f57600080fd5b50565b600081359050610721816106fb565b92915050565b60006020828403121561073d5761073c6106e7565b5b600061074b84828501610712565b91505092915050565b61075d816106f1565b82525050565b600073ffffffffffffffffffffffffffffffffffffffff82169050919050565b600061078e82610763565b9050919050565b61079e81610783565b82525050565b600081519050919050565b600082825260208201905092915050565b60005b838110156107de5780820151818401526020810190506107c3565b60008484015250505050565b6000601f19601f8301169050919050565b6000610806826107a4565b61081081856107af565b93506108208185602086016107c0565b610829816107ea565b840191505092915050565b60008115159050919050565b61084981610834565b82525050565b600060a0820190506108646000830188610754565b6108716020830187610795565b818103604083015261088381866107fb565b90506108926060830185610754565b61089f6080830184610840565b9695505050505050565b600080604083850312156108c0576108bf6106e7565b5b60006108ce85828601610712565b92505060206108df85828601610712565b9150509250929050565b60006020820190506108fe6000830184610754565b92915050565b600080fd5b600080fd5b7f4e487b7100000000000000000000000000000000000000000000000000000000600052604160045260246000fd5b610946826107ea565b810181811067ffffffffffffffff821117156109655761096461090e565b5b80604052505050565b60006109786106dd565b9050610984828261093d565b919050565b600067ffffffffffffffff8211156109a4576109a361090e565b5b6109ad826107ea565b9050602081019050919050565b82818337600083830152505050565b60006109dc6109d784610989565b61096e565b9050828152602081018484840111156109f8576109f7610909565b5b610a038482856109ba565b509392505050565b600082601f830112610a2057610a1f610904565b5b8135610a308482602086016109c9565b91505092915050565b60008060408385031215610a5057610a4f6106e7565b5b600083013567ffffffffffffffff811115610a6e57610a6d6106ec565b5b610a7a85828601610a0b565b9250506020610a8b85828601610712565b9150509250929050565b7f4e487b7100000000000000000000000000000000000000000000000000000000600052602260045260246000fd5b60006002820490506001821680610adc57607f821691505b602082108103610aef57610aee610a95565b5b50919050565b7f4f6e6c7920746865206172746973742063616e2075706461746520746865207060008201527f7269636500000000000000000000000000000000000000000000000000000000602082015250565b6000610b516024836107af565b9150610b5c82610af5565b604082019050919050565b60006020820190508181036000830152610b8081610b44565b9050919050565b7f5072696365206d7573742062652067726561746572207468616e203000000000600082015250565b6000610bbd601c836107af565b9150610bc882610b87565b602082019050919050565b60006020820190508181036000830152610bec81610bb0565b9050919050565b7f4e487b7100000000000000000000000000000000000000000000000000000000600052601160045260246000fd5b6000610c2d826106f1565b91507fffffffffffffffffffffffffffffffffffffffffffffffffffffffffffffffff8203610c5f57610c5e610bf3565b5b600182019050919050565b60008190508160005260206000209050919050565b60006020601f8301049050919050565b600082821b905092915050565b600060088302610ccc7fffffffffffffffffffffffffffffffffffffffffffffffffffffffffffffffff82610c8f565b610cd68683610c8f565b95508019841693508086168417925050509392505050565b6000819050919050565b6000610d13610d0e610d09846106f1565b610cee565b6106f1565b9050919050565b6000819050919050565b610d2d83610cf8565b610d41610d3982610d1a565b848454610c9c565b825550505050565b600090565b610d56610d49565b610d61818484610d24565b505050565b5b81811015610d8557610d7a600082610d4e565b600181019050610d67565b5050565b601f821115610dca57610d9b81610c6a565b610da484610c7f565b81016020851015610db3578190505b610dc7610dbf85610c7f565b830182610d66565b50505b505050565b600082821c905092915050565b6000610ded60001984600802610dcf565b1980831691505092915050565b6000610e068383610ddc565b9150826002028217905092915050565b610e1f826107a4565b67ffffffffffffffff811115610e3857610e3761090e565b5b610e428254610ac4565b610e4d828285610d89565b600060209050601f831160018114610e805760008415610e6e578287015190505b610e788582610dfa565b865550610ee0565b601f198416610e8e86610c6a565b60005b82811015610eb657848901518255600182019150602085019450602081019050610e91565b86831015610ed35784890151610ecf601f891682610ddc565b8355505b6001600288020188555050505b505050505050565b6000610ef382610763565b9050919050565b610f0381610ee8565b82525050565b6000608082019050610f1e6000830187610754565b610f2b6020830186610efa565b8181036040830152610f3d81856107fb565b9050610f4c6060830184610754565b95945050505050565b7f417274776f726b206973206e6f7420666f722073616c65000000000000000000600082015250565b6000610f8b6017836107af565b9150610f9682610f55565b602082019050919050565b60006020820190508181036000830152610fba81610f7e565b9050919050565b7f496e73756666696369656e74207061796d656e74000000000000000000000000600082015250565b6000610ff76014836107af565b915061100282610fc1565b602082019050919050565b6000602082019050818103600083015261102681610fea565b9050919050565b600061104861104361103e84610763565b610cee565b610763565b9050919050565b600061105a8261102d565b9050919050565b600061106c8261104f565b9050919050565b61107c81611061565b82525050565b60006080820190506110976000830187610754565b6110a46020830186611073565b6110b16040830185610efa565b6110be6060830184610754565b95945050505050565b60006110d2826106f1565b91506110dd836106f1565b92508282039050818111156110f5576110f4610bf3565b5b9291505056fea2646970667358221220a8229dfebf3ea7a5005e8e79223171d4fbf1e3cd9904567f437599dd7b5116f364736f6c63430008180033",
  "linkReferences": {},
  "deployedLinkReferences": {}
}